:100000000C941B030C9462030C9462030C94620323
:100010000C9462030C9462030C9462030C946203CC
:100020000C9462030C9462030C942C270C94FE270E
:100030000C94BB1F0C9462030C9462030C94620337
:100040000C9462030C9462030C9462030C9462039C
:100050000C9462030C9423200C9462030C946203AE
:100060000C9462030C9462030C9462030C9462037C
:100070000C9462030C9462030C9462030C9462036C
:100080000C9462030C9462030C9462030C9462035C
:100090000C9462030C9462030C9462030C9462034C
:1000A0000C9462030C9462030C946203651565154D
:1000B00097159715E41502165A175A174416D916AC
:1000C000EA16EA164A175A175A175317E017E01795
:1000D000F217F217E917F217F217F217E017E01705
:1000E000EE17F217F217EE176B2892288A2992283A
:1000F0008A29DE2801298A29582967290763423677
:10010000B79BD8A71A39685618AEBAAB558C1D3CA8
:10011000B7CC5763BD6DEDFD753EF6177231BF006C
:100120000000803F05A84CCDB2D44EB93836A902A4
:100130000C50B9918688083CA6AAAA2ABE000000E5
:10014000803F68747470733A2F2F716D6B2E666DDB
:100150002F012800514D4B2069732074686520627F
:10016000657374207468696E672065766572210016
:1001700068006E0029003A003B003C003D003E0054
:100180003F0040004100420043004400450046005B
:100190004C00490069006F0035001E001F00200060
:1001A00021002200230024002500260027002D0026
:1001B0002E0000002A004A006A0070002B00140084
:1001C0001A000800150017001C0018000C0012008F
:1001D00013002F003000000031004D006B00710053
:1001E000390004001600070009000A000B000D008A
:1001F0000E000F00330034000000000028004B0008
:100200006C007200E1001D001B00060019000500D3
:1002100011001000360037003800E5000000000033
:1002200052004E006D007300E000E300E2000000A9
:10023000000000002C0000000000E600E400500078
:100240000000000051004F0000000000000000000E
:100250002A2B280000000000000000000000000021
:1002600000000029000000002C1E3420212224342C
:100270002627252E362D3738271E1F2021222324FE
:1002800025263333362E37381F0405060708090A9A
:100290000B0C0D0E0F101112131415161718191A36
:1002A0001B1C1D2F3130232D350405060708090AB4
:1002B0000B0C0D0E0F101112131415161718191A16
:1002C0001B1C1D2F3130354C0000000000000000C9
:1002D000000000000000000000000000000000001E
:1002E000000000000000000000000000000000000E
:1002F00000000000000000000000000000000000FE
:1003000000000000000000000000000000000000ED
:1003100000000000000000000000000000000000DD
:1003200000000000000000000000000000000000CD
:1003300000000000000000000000000000000000BD
:1003400000000000000000000000000000000000AD
:10035000000000000000000000000000000000009D
:100360000000000000000000000101010101010087
:100370000101010100000000000000000000000079
:100380000000010001000101010101010101010161
:10039000010101010101010101010101010101014D
:1003A0000101010000000101000000000000000048
:1003B000000000000000000000000000000000003D
:1003C000000000010101010000047F3F1F6432149E
:1003D000643214783C1E1E140A05FFAA7F554000A3
:1003E00001010101010101010102020202020202F6
:1003F00002020303030303030303040404040404C9
:10040000040505050505060606060607070707078E
:1004100008080808090909090A0A0A0B0B0B0C0C41
:100420000C0D0D0D0E0E0E0F0F0F101011111112DD
:100430001213131414151516161717181819191A5C
:100440001A1B1B1C1D1D1E1E1F20202122222324BF
:1004500024252626272829292A2B2C2D2D2E2F30FE
:10046000313232333435363738393A3B3C3D3E3F12
:10047000404142434445464748494A4C4D4E4F50FF
:10048000515354555658595A5B5D5E5F61626465BD
:100490006668696B6C6D6F7072737577787A7B7D47
:1004A0007E8082838587888A8C8E8F91939596989B
:1004B0009A9C9EA0A2A3A5A7A9ABADAFB1B3B5B7B7
:1004C000BABCBEC0C2C4C6C9CBCDCFD1D4D6D8DB8E
:1004D000DDDFE2E4E7E9EBEEF0F3F5F8FAFDFF0427
:1004E00003300000001A03250020004B004500598E
:1004F0000042004F0041005200440020002500004F
:10050000001C032500200059004F00550052005FD9
:10051000004E0041004D0045002000250000000471
:1005200003090409023B00020100A0FA09040000CB
:10053000010301010009211101000122400007050A
:10054000810308000A0904010001030000000921D9
:10055000110100012285000705820320000A120113
:10056000100100000008EDFE00000100010203017F
:1005700005010902A10185020901A100050919016E
:100580002905150025019505750181029501750361
:1005900081010501093009311581257F9502750812
:1005A000810609381581257F950175088106050C9E
:1005B0000A38021581257F950175088106C0C0059E
:1005C000010980A10185031A81002A830016010018
:1005D000260300950175108100C0050C0901A101D9
:1005E00085041A01002A9C02160100269C0295012E
:1005F00075108100C005010906A101050719E02950
:10060000E71500250195087501810295017508819E
:10061000010507190029FF150026FF00950675083A
:1006200081000508190129059505750191029501BB
:1006300075039101C00011241FBECFEFDAE0DEBFC9
:10064000CDBF04B603FE27C08091A8039091A903F3
:10065000A091AA03B091AB038730904BA740B04B59
:10066000D1F41092A8031092A9031092AA03109239
:10067000AB0314BE84B7877F84BF0FB6F894A895E8
:1006800080916000886180936000109260000FBECE
:10069000E0E0F8E3099511E0A0E0B1E0E8E1FBE576
:1006A00002C005900D92A036B107D9F723E0A0E66D
:1006B000B1E001C01D92A83AB207E1F70E945424AC
:1006C0000C948A2D0C94000083302DE5920721F0C4
:1006D00084309D4541F00FC0FB018281882359F091
:1006E00084E591E006C0FB018281882321F082E449
:1006F00091E00E94250481E00895089508950895E9
:1007000081E008950C9464031F93CF93DF9300D08E
:1007100000D01F92CDB7DEB749835A836B832091F7
:10072000C40189819A81211112C0662349F00E9477
:10073000301D182F682F89819A810E94D91C03C00F
:100740000E94041D182F69817A81812F04C00E94A4
:10075000301D69817A810F900F900F900F900F904C
:10076000DF91CF911F910C940C07FC0140815181C6
:100770006281738184810C9484031F93CF93DF93F0
:1007800090E0FC01E85BFD4F1491FC01E85BFC4F3D
:10079000D491FC01E853FD4FC491DD2319F081EEA3
:1007A0000E948C13CC2319F086EE0E948C13812FAB
:1007B0000E941215CC2319F086EE0E94AA14DD23A4
:1007C00031F081EEDF91CF911F910C94AA14DF914B
:1007D000CF911F9108950F931F93CF93DF93EC0157
:1007E000062FFE018491882359F19E012F5F3F4F10
:1007F000813041F4E901F9011491812F0E948C1399
:10080000812F0DC0823031F4E901F90184910E94F9
:100810008C130AC0833031F4E901F90184910E94FC
:10082000AA1402C00E94BD032196802F8823C9F21A
:10083000EFE9FFE03197F1F700C000008150F6CFFB
:10084000DF91CF911F910F91089560E00C94EB031D
:100850000E94621E811102C00E94021F0C94B809FE
:100860000C94BA090C947F030C94320408950E94EE
:10087000CE170E9436042FEF84E39CE02150804085
:100880009040E1F700C000000C9449200F931F93A3
:10089000CF93DF938C010E94B503EC01B8010E9455
:1008A0008203882309F4AEC2B801CE010E94C311AD
:1008B000882309F4A7C2CB3CFCE5DF0741F4F8012B
:1008C0008281882309F49EC20E94140C9BC2CC3CF6
:1008D0008CE5D80708F0D1C1C33C9CE5D90761F489
:1008E000F8018281882309F48DC20E94B11D8272B1
:1008F000F1F00E94251086C2C43CECE5DE07D0F082
:10090000F8018281C73CFCE5DF0709F48BC108F0E0
:100910009BC1C53CECE5DE0709F48AC108F08EC135
:10092000882309F46FC20E94B11D827211F30E94E4
:10093000181068C2C631FCE5DF0708F03CC1C230C0
:100940008CE5D80708F413C1F8018281882309F4E3
:1009500015C10E94621E811102C00E94021F0E94E6
:10096000751E90939A0380939903C031FCE5DF07CD
:1009700009F4BFC008F03FC0C8309CE5D90709F4AE
:1009800096C0F0F4C430FCE5DF0709F483C068F4D6
:10099000C2309CE5D90709F473C0C330DC4509F0C7
:1009A000DDC080919903826072C0C630FCE5DF072C
:1009B00009F46AC008F077C080919903886067C025
:1009C000CC309CE5D90709F481C058F4CA30FCE565
:1009D000DF0709F470C008F075C080919903806842
:1009E00056C0CE309CE5D90709F474C008F07DC02C
:1009F0008091990389C0CB3FFCE5DF0709F44DC026
:100A000008F5C3319CE5D90709F47BC068F4C1310E
:100A1000FCE5DF0709F471C0C231DC4509F09EC076
:100A2000809199038F7733C0C5319CE5D90709F4CC
:100A300072C008F486C0CA3FDC4509F08FC08091BF
:100A40009A033EC0CF3F8CE5D80709F45FC058F445
:100A5000CD3FECE5DE0709F444C008F43FC08091C7
:100A60009A0382602DC0C1308DE5D80709F473C0A8
:100A700008F45DC0C230DD4509F070C080E06CC094
:100A800080919903816003C0809199038061809374
:100A9000990364C08091990311C080919A03826088
:100AA00080939A035BC0809199038062F0CF80911C
:100AB00099038064ECCF8091990388608460E7CFCC
:100AC0008160EECF809199038E7FE1CF8091990371
:100AD0008D7FDDCF80919903877FD9CF80919A0355
:100AE00018C080919A038D7FDBCF809199038F7E10
:100AF000CECF809199038F7DCACF809199038F7B50
:100B0000C6CF80919903877F8B7FC1CF80919A0355
:100B10008D7F8E7FC5CF8091990382FB222720F99C
:100B200091E0922790FB82F990FB83F9B0CF8091FE
:100B30009A03982F909591708E7F892B90FB81F965
:100B4000AFCF8091990387FB222720F991E092276C
:100B500090FB87F99CCF81E00E94041F809199034C
:100B600090919A030E94861E0E94CE174BC1C11518
:100B70009CE5D90751F0C130DC4579F0C801DF911F
:100B8000CF911F910F910C948003F80182818823EB
:100B900009F438C10E94370435C1F80182818823E5
:100BA00009F430C180915802982F909590FB80F9FC
:100BB0008093580227C1C631FCE5DF0739F50E9452
:100BC000B11D982FF80182812091100130911101FF
:100BD000882379F09A7A81E009F480E080936001BB
:100BE000911102C069E201C065E3C9010E943C1F86
:100BF0000AC080916001811102C069E201C065E311
:100C0000C9010E943E1F0E94FF1DFCC0C23CDC4582
:100C100009F0B4CFF8018281882309F4F3C00E945F
:100C20003310F0C0882309F4EDC00E94CB0DEAC058
:100C3000882309F4E7C00E94AF0DE4C0882309F4BB
:100C4000E1C00E94BC0DDEC0C93C9CE5D90731F46F
:100C5000882309F4D7C00E94E90DD4C0CA3CDC4502
:100C600030F4882309F4CEC00E94DA0DCBC088236B
:100C700009F4C8C00E94F80DC5C0C33DFCE5DF07FC
:100C800049F4F8018281882309F4BCC088E10E94FC
:100C90002810B8C0C43D8CE5D80708F069C0F80139
:100CA0008281CF3CFCE5DF0771F4882309F4AAC0F8
:100CB0000E940C0C863028F00E940C0C883008F43E
:100CC00036CE86E0E4CFC03D9CE5D90700F5CD3CAB
:100CD000ECE5DE0729F4882309F494C081E0D7CF3E
:100CE000CE3CDC4530F4882309F48CC00E94250CEE
:100CF00089C0882309F486C00E940C0C823028F039
:100D00000E940C0C853008F412CE82E0C0CFC13DA9
:100D10009CE5D90771F4882309F474C00E940C0C77
:100D20008F3028F00E940C0C843108F400CE8FE044
:100D3000AECFC23DDC4570F4882309F463C00E9445
:100D40000C0C893028F00E940C0C8E3008F4EFCD8A
:100D500089E09DCF882309F455C00E940C0C853191
:100D600028F00E940C0C873108F4E1CD85E18FCF8B
:100D7000CD3DFCE5DF0749F4F8018281882309F4C1
:100D800041C082E00E94F3243DC0CE3D8CE5D807EF
:100D900038F5C53D9CE5D90731F4F80182818823F7
:100DA00089F183E274CFC53DECE5DE0778F4F80104
:100DB0008281882339F10E940C0C893128F00E942D
:100DC0000C0C823208F4B3CD89E161CFCC3DDC4517
:100DD00009F0D4CEF80182818823A1F080E0D2CF3F
:100DE000CE3D8CE5D80739F4F8018281882351F093
:100DF0000E94021F07C0CE018A5F9C45099708F434
:100E0000A3CDBCCE80E0DF91CF911F910F910895CB
:100E100080E090E0089508952CE6829FC00111249F
:100E2000FC0122E1729FE00DF11D1124E60FF11D7E
:100E3000EE0FFF1FE059FE4F859194910895880FA2
:100E4000991FFC01E853FC4F859194910895CF932D
:100E5000DF930E940C070E94E108EC018115904588
:100E600008F041C0C11580E4D80708F028C1C83E89
:100E7000D10510F5C03ED10508F09FC1C83AD10593
:100E800078F4C53AD10508F0A2C0C130D10509F403
:100E900094C108F445C1C430D10508F08EC140C1E9
:100EA000CF3BD10508F49EC0C03CD10508F438C141
:100EB000CE01805C9109F5C0C11590E2D90758F4C4
:100EC000C11521E0D20708F078C1C03FD10508F470
:100ED00027C1D06572C1C11580E3D80708F0E5C00D
:100EE000CE019F70DEC0C11595E5D90708F043C05B
:100EF000C11524E5D20708F0F9C0C11582E5D8076D
:100F000008F5C11591E5D90708F0DCC0CE0174E001
:100F1000969587957A95E1F783709C2F937021E0E1
:100F200030E002C0220F331F9A95E2F73C68382B5D
:100F3000CF70C695C69580E2C89FE0011124C22BF0
:100F4000D32B3BC19E01237033278C2F869586952A
:100F5000C115D34508F0BBC0C1E0D0E002C0CC0F42
:100F6000DD1F2A95E2F720E2829FC0011124C82BE1
:100F7000D92BDC6822C1C11529E5D207A0F4C1151F
:100F800088E5D80708F0B7C0C11596E5D90708F07D
:100F9000C7C08C2F0E9475098F71C82FD0E0DC2F3D
:100FA000CC27D0620AC1C1152AE5D20708F4A8C02F
:100FB000CE0190568115904208F0B2C08D2F8F71EE
:100FC0000E947509DD27D0628F71D82BF6C0C53A13
:100FD000D10509F4A8C0C63AD10509F0A7C0C2E8F6
:100FE000D0E4EBC0C83AD10509F4A3C0C93AD10591
:100FF00009F4A2C0CA3AD10509F4A1C0CB3AD1057F
:1010000009F4A0C0CC3AD10509F49FC0CB3BD1056F
:1010100009F49EC0CC3BD10509F49DC0CD3AD10561
:1010200009F49CC0C03BD10509F49BC0CE3AD10560
:1010300009F49AC0CF3AD10509F499C0C13BD10552
:1010400009F498C0C23BD10509F497C0C33BD10550
:1010500009F496C0C43BD10509F495C0C53BD10540
:1010600009F494C0C63BD10509F493C0C73BD10530
:1010700009F492C0C83BD10509F491C0C93BD10520
:1010800009F490C0CD3BD10509F48FC0CE3BD1050A
:1010900009F48EC0CA3BD10509F48DC0C0E0D4E488
:1010A0008CC00E941F07EC0188C0CE019927D3FF96
:1010B00003C0EC01D86C81C0EC01D06C7EC0DF7045
:1010C000D06A7BC0DC2FCC27C16FD06A76C0C1E06C
:1010D000D0E002C0CC0FDD1F2A95E2F720E2829F0C
:1010E000C0011124C82BD92BDA6867C0DC2FCC27AC
:1010F000C46FD06A62C0DC2FCC27C06FD06A5DC0DD
:101100008C2F8F700E94750994E0D695C7959A959B
:10111000E1F7CF70D0E0DC2FCC27D069C82B4DC0D1
:10112000C0E0D0E04AC0C1E8D0E447C0C3E8D0E4A2
:1011300044C0C2EED4E441C0C9EED4E43EC0CAEE1D
:10114000D4E43BC0C5EBD4E438C0C6EBD4E435C02E
:10115000C3EBD4E432C0C4EBD4E42FC0C7EBD4E477
:101160002CC0CCECD4E429C0CDECD4E426C0C3E838
:10117000D5E423C0CAE8D5E420C0C2E9D5E41DC047
:10118000C4E9D5E41AC0C1E2D6E417C0C3E2D6E48C
:1011900014C0C4E2D6E411C0C5E2D6E40EC0C6E273
:1011A000D6E40BC0C7E2D6E408C0CFE6D4E405C05D
:1011B000C0E7D4E402C0CAE2D6E4CE01DF91CF9109
:1011C00008958238910569F1B0F48133910509F4ED
:1011D0006DC048F48932910509F463C08A329105E3
:1011E00009F469C008958533910509F455C0893320
:1011F0009105B9F00895833E910569F138F4803E78
:101200009105B1F0823E910509F10895863E910560
:10121000A9F1873E9105B9F1843E910509F064C0BA
:1012200023C02091990320FD4FC021FD4DC008959A
:101230008091990380FD44C080919A0380FF44C04F
:101240008091990384FD42C083EE4DC08091990343
:1012500082FF38C0F5CF8091990382FD33C0809121
:101260009A0380FD31C0ECCF80919A0381FF32C098
:101270008091990384FD2AC087EE35C0809199033F
:1012800083FF26C0F5CF8091990383FD21C0809113
:101290009A0381FD1FC0ECCF8091990385FD1CC08E
:1012A0001DC08091990385FD19C016C080919903D6
:1012B00086FD16C017C08091990386FD13C010C02B
:1012C00089E311C082EE0FC080EE0DC080E00BC03C
:1012D00086EE09C084EE07C089E205C085E303C03D
:1012E0008AE201C081E390E008959091990392FF12
:1012F0000DC0282F2871283019F4877F846006C01C
:10130000282F2471243011F48B7F886093FF0DC047
:10131000282F2871283119F4877E846106C0282F70
:101320002471243111F48B7E886120919A0320FF6F
:101330000DC0382F3871383019F4877F816006C0AE
:10134000382F3171313011F48E7F886021FF0DC04C
:10135000282F2871283119F4877E816106C0282F33
:101360002171213111F48E7E886194FD877E08956C
:101370000C947D030C947E0324E0829FC001112411
:10138000FC01EF59FE4F6081718182819381089544
:101390000895CF93DF93A5E3B1E04BE351E061E023
:1013A00070E08D91E82FE295EF70F0E021A18F7051
:1013B000EB0102C0CC0FDD1F8A95E2F7CE019C2F16
:1013C0009095922391A392A1892B82A34A175B0740
:1013D00041F7A3E2B1E045E351E061E070E08D91B7
:1013E000E82FE295EF70F0E021A18F70EB0102C0D1
:1013F000CC0FDD1F8A95E2F7CE019C2F90959223AA
:1014000091A392A1892B82A34A175B0741F7E9E7D1
:10141000F1E0A1E6B1E081E991E01192119211921F
:1014200011921D921D921D921D928E179F07A9F772
:1014300086E00E94F00ADF91CF910C9428042F924D
:101440003F924F925F926F927F928F929F92AF9254
:10145000BF92CF92DF92EF92FF920F931F93CF93A1
:10146000DF93CDB7DEB72A970FB6F894DEBF0FBE75
:10147000CDBF25E331E03C832B83A9E7B1E01F8298
:1014800041E050E060E070E0BE83AD838D909D90C0
:10149000AD90BC9013971D921D921D921C921397B4
:1014A000EB81FC818191FC83EB83E82FE295EF7067
:1014B0002E2F30E03A872987F90191A18F702224DD
:1014C0002394312C01C0220C8A95EAF7892F8229B6
:1014D00081A392A1822D8095982392A3F0EAFA9598
:1014E000F1F723E231E03A83298300E010E0E9815B
:1014F000FA81F190FA83E9832F2D22952F7030E045
:10150000F90120A14D905D906D907C90139730E093
:10151000FF2DFF7002C035952795FA95E2F720FD63
:101520000BC06A017B01002E04C0CC0CDD1CEE1C3C
:10153000FF1C0A94D2F703C0C12CD12C76014C2891
:101540005D286E287F284D925D926D927C92139754
:101550000F5F1F4F0231110551F6E985FA8591A100
:10156000892381A382A1282A22A2149681E0ED81F9
:10157000FE810081118122813381081519052A0518
:101580003B0509F480E0FF81F82BFF8321E931E07E
:101590002A173B0709F078CF2F2F46E061E671E06C
:1015A00089E791E00E94F10A0E9430048F812A9617
:1015B0000FB6F894DEBF0FBECDBFDF91CF911F9164
:1015C0000F91FF90EF90DF90CF90BF90AF909F90E2
:1015D0008F907F906F905F904F903F902F900895E5
:1015E0000895FF920F931F93CF93DF93F82ED92F77
:1015F0008B01C42F222349F081E0809393010E9444
:10160000ED1F909392018093910180919301882323
:10161000F1F080919101909192010E94F91F06973B
:10162000B0F0EF2DFD2FD80180E090E04C2F50E07E
:101630008417950754F401911191219131910D93E3
:101640001D932D933D930196F3CF10929301DF915B
:10165000CF911F910F91FF900895EF92FF920F93FA
:101660001F93CF93DF93F62E472FE82FF0E07111F1
:1016700006C0E152FC4F6491762F862F72C0272F4F
:1016800030E0E152FC4FE4910E2F10E056E0659FF0
:10169000C0011124CFEFD0E0BE010E94072D5BEA0C
:1016A0005603C001579F900D11248F0D911D8F0D72
:1016B000911D982F990F890F7E01E21AF30AE09E7F
:1016C000D001E19EB00DF09EB00D1124489FA00105
:1016D0001124452F55277E01E41AF50AE09EA0014A
:1016E000E19E500DF09E500D11247E01E81AF10884
:1016F000E29EC001E39E900DF29E900D1124892F71
:101700009927C81BD90BC09FC001C19F900DD09FC6
:10171000900D11246230710591F048F46115710546
:10172000E1F061307105A9F48B2F752F19C0643079
:10173000710561F038F06630710579F00AC0892FC3
:101740007B2F0EC08E2F7B2FE52F0AC08E2F792F77
:1017500002C0852F7E2FEB2F03C08B2F7E2FE92F0A
:101760006E2FDF91CF911F910F91FF90EF90089511
:101770000895CF93DF93762FE901682F842F0E947D
:101780002D0B798368838A83DF91CF91089545314A
:1017900008F044E10C94B90B80917102282F269532
:1017A00030E02115310519F48170826005C02532C1
:1017B000310524F0817088648093710280917402F5
:1017C000853118F084E180937402089588E090E0F8
:1017D0000C944A2DCF92DF92EF92FF926B017C0125
:1017E0000E94CC0BB701A60188E090E0FF90EF903B
:1017F000DF90CF900C94682DE1E7F2E083E08083E6
:1018000011828FEF828384E18383148260817181EE
:10181000828193810C94EA0B8091710280FF02C057
:101820008695089580E0089580917502833018F4BC
:101830008F5F809375026091710270917202809146
:101840007302909174020C94EA0B809175028823C4
:1018500019F081508093750260917102709172024B
:1018600080917302909174020C94EA0B60910401D0
:1018700070E08091710280FF0AC08091980123E09E
:10188000829FC00111248A589D4F0C944C11809165
:10189000970190910301891780F7E82FF0E09F01ED
:1018A000220F331FE20FF31FEA58FD4F11821082FF
:1018B00012828F5FF0CF9091710290FF16C09091CD
:1018C000970120910301921770F4E92FF0E0DF01F6
:1018D000AA0FBB1FEA0FFB1FEA58FD4F81836083ED
:1018E00042839F5FF0CF0C94360C0895CF93DF9323
:1018F00000D01F92CDB7DEB79091710290FF0AC061
:101900009E012F5F3F4F0E94C70B4B8169818A81E7
:101910000E945B0C0F900F900F90DF91CF91089574
:10192000CF93DF93EC016C8170E080E090E00E9447
:10193000082B20E030E04FE753E40E942B2A2BEDE8
:101940003FE049E450E40E94312C0E949E2C0E940A
:10195000A52A2BE43AE34EE25FE30E94BE2920EF82
:101960003BEF48ED52E40E94312C0E94D72A462FCB
:10197000E1E7F2E0628181810E94760C8C818F5FC9
:101980008C83DF91CF910895CF93DF93EC01E1E752
:10199000F2E0438162818C810E94760C8C818F5FA2
:1019A0008C83DF91CF9108950F931F93CF93DF9393
:1019B00000D01F92CDB7DEB78C01809194018111C8
:1019C0000AC09E012F5F3F4F44E16FEF0E94C70B9B
:1019D0008A8180939401F8018481813051F028F04C
:1019E000823061F4409194010AC08091940140E0FA
:1019F00007C06091940140E080E003C040E080E0D7
:101A000060E00E945B0CF801848190E0019663E045
:101A100070E00E941B2D84830F900F900F90DF9138
:101A2000CF911F910F910895AF92BF92CF92DF9205
:101A3000EF92FF920F931F93CF93DF9300D01F92EB
:101A4000CDB7DEB7182FF62E042FE22E909171023B
:101A500090FF6DC0E92FE695AE2FB0E0A55CBE4FBC
:101A60008C918093A0019E7F923061F49E012F5F44
:101A70003F4F812F0E94C70B4B8169818A810E9451
:101A80005B0C43C0823019F4009174023EC0863072
:101A900019F41091720239C08930D9F38931A9F54E
:101AA000E9518E2F8170D82EE695F0E0E652FC4F7A
:101AB000A590B490C12CBB2460910201C61618F504
:101AC0002C2D30E0A29EC001A39E900DB29E900DE1
:101AD000112470E00E94072D812FD11002C0860FC3
:101AE00001C0861B90919701290F311DA901440F58
:101AF000551F240F351F2A583D4F402F6F2D0E9430
:101B0000C70BC394D9CF0E94360C10937202F09287
:101B1000730200937402EE2051F060917102709193
:101B2000720280917302909174020E94EA0B0F90EE
:101B30000F900F90DF91CF911F910F91FF90EF9039
:101B4000DF90CF90BF90AF900895E1E7F2E09181F0
:101B5000282F4381628188E0890F0C94140D81E065
:101B60000C94A50DE1E7F2E09181282F4381628179
:101B700088EF890F0C94140D81E00C94B20DE1E70D
:101B8000F2E0628128E0620F08F46FEF282F4381B2
:101B900081810C94140D81E00C94BF0DE1E7F2E01B
:101BA000628128E0621B08F460E0282F4381818174
:101BB0000C94140D81E00C94CE0DE1E7F2E043812A
:101BC00028E0420F08F44FEF282F628181810C94A6
:101BD000140D81E00C94DD0DE1E7F2E0438128E093
:101BE000421B08F440E0282F628181810C94140D7F
:101BF00081E00C94EC0D20E00C94140DFF920F93F7
:101C00001F93CF93DF93EC01F12C0FEF10E0609165
:101C10000201F616F0F4809197012F2D30E0280F85
:101C2000311DC901880F991F280F391F2A583D4FB0
:101C300070E0C8010E941B2D962F8C814091740288
:101C400060917302F99E800D11240E94C70BF394DA
:101C5000DECF0E94360C9A818C8190FF02C08F5F8C
:101C600001C081508C83DF91CF911F910F91FF9024
:101C70000895BF92CF92DF92EF92FF920F931F933E
:101C8000CF93DF93FC01828180FF02C00FEF01C080
:101C900001E010E0809102011817E0F580919701B2
:101CA000C12ED12CE601C80FD11DCE01880F991F7E
:101CB000C80FD91FCA58DD4F198218821A8234E022
:101CC000E32EF12CB12C809196018B0D87FF03C080
:101CD00090910201890F082E000C990BC816D906A5
:101CE00091F4809174028E9DA0018F9D500D11245E
:101CF00055954795559547959E0160917302809142
:101D000072020E94C70BB00EF1E0EF1AF108D9F68B
:101D10001F5FC0CF0E94360C80919601013031F4D4
:101D2000811102C080910201815007C090E00196AC
:101D30006091020170E00E941B2D80939601DF915B
:101D4000CF911F910F91FF90EF90DF90CF90BF90B8
:101D50000895CF938091970190910301891770F4B2
:101D6000E82FF0E09F01220F331FE20FF31FEA5824
:101D7000FD4F1182108212828F5FF0CFC0E0609120
:101D80000201C617C0F5EC2FF0E070E0CF010E9411
:101D90001B2D20919701820F20919501022E000C9E
:101DA000330B90E0E217F307CCF020910101022EF3
:101DB000000C330B2E173F078CF09C01220F331FB2
:101DC000820F931F9C012A583D4F409174026091ED
:101DD0007302809172020E94C70B0BC0FC01EE0FD0
:101DE000FF1F8E0F9F1FFC01EA58FD4F11821082CA
:101DF0001282CF5FC4CF0E94360C209100018091E7
:101E00009501820F8093950190910101920F90931B
:101E1000010119165CF4082E000C990B4091020187
:101E200050E041505109841795071CF021952093EB
:101E30000001CF9108950F931F93CF93DF938C01EF
:101E4000FC01848195810196817099279583848313
:101E5000C0E0D5E580910201C81700F58091970197
:101E60002C2F30E0280F311DC901880F991F280F32
:101E7000391F2A583D4F4C2F4695F8018481958192
:101E8000840F911D817040917402609173028D9F47
:101E9000802D11240E94C70BCF5FDCCFDF91CF9143
:101EA0001F910F910C94360C0F931F93CF93DF93D8
:101EB000EC0100E010E080910201282F30E00217D1
:101EC000130724F5909197019801290F311DA9015D
:101ED000440F551F240F351F2A583D4F869590E01B
:101EE0004C81081719071CF4442331F002C041113A
:101EF00003C04091740201C040E060917302809180
:101F000072020E94C70B0F5F1F4FD5CF0E94360C85
:101F10008C8190E00196817099278C83DF91CF911D
:101F20001F910F910895E1E7F2E080818E7F808319
:101F300060817181828193810E94EA0B1092A101DC
:101F40002FEF80E792E0215080409040E1F700C001
:101F500000000C94360CE1E7F2E080818E7F8083F4
:101F60001092A1012FEF80E792E021508040904035
:101F7000E1F700C000000C94360C60917102669588
:101F800070E04BE050E085E091E00E94352D892B18
:101F900019F481E08093A1010E94ED1F90939A01B2
:101FA0008093990108959091710290FF35C09170CE
:101FB000811102C0926006C0853210F0986402C0A0
:101FC000880F982B90937102662351F060917102F3
:101FD0007091720280917302909174020E94EA0BD8
:101FE00060917102669570E04BE050E085E091E011
:101FF0000E94352D892B19F01092A10102C00E9478
:10200000BD0F81E080939C01409174026091730246
:10201000809172020C94FB0D0895682F90917102CB
:10202000969581E0890F853208F081E00C94D30FFA
:1020300081E00C940D10682F9091710296958FEFAE
:10204000890F09F484E20C94D30F81E00C941B10E7
:1020500061E00C94D30FE1E7F2E08081816080833E
:1020600086950C9428108091710280FD0C94930F3A
:102070000C942B1060E00C94D30F80919F01811180
:1020800033C0809158028160809358020E94621E82
:10209000811104C00E94021F0E94FC0B0E94E60BEB
:1020A0006093710270937202809373029093740232
:1020B0006E7F61F40E94FC0B0E94E60B609371023C
:1020C0007093720280937302909374020E94CC0BFF
:1020D0001092A1018091710280FF03C086950E9439
:1020E0003A1081E080939F010895E1E7F2E080815A
:1020F0008160808386950C943A101092A101089516
:102100000F931F93CF93DF938091A101882309F44C
:102110008CC08091A001E0917102E695E81BE093EC
:102120009B01823049F4F0E0EA52FC4FE491CE2F5B
:10213000D0E000E91CE049C0863049F4F0E0ED52FF
:10214000FC4FE491CE2FD0E004EC1CE03EC089307F
:1021500051F4E695F0E0E053FC4FE491CE2FD0E04F
:102160000EEF1DE032C08F3051F4E695F0E0E353FE
:10217000FC4FE491CE2FD0E009E31EE026C085316C
:1021800049F4F0E0E653FC4FE491CE2FD0E009EAA9
:102190001EE01BC0883181F0833239F4E8ECF3E0B3
:1021A000C591D49104ED1CE010C0843251F4C4EF09
:1021B000D1E004E51FE009C0C8EED3E00BE11FE069
:1021C00004C0C0EDD7E008EB1BE080919C018823A0
:1021D00089F010929C010E94ED1F9E012095309580
:1021E000820F931F90939A018093990110929E0100
:1021F00010929D018091990190919A010E94F91F7E
:102200008C179D0790F0E0919901F0919A01CE0F03
:10221000DF1FD0939A01C093990189E991E0F801F9
:10222000DF91CF911F910F910994DF91CF911F9171
:102230000F91089522B1342F3095232332B1432BCF
:102240003FB7F894FC01680F791FE617F70789F08C
:10225000819198E042B9000000C087FF22B9880F41
:10226000000000C000C000C022B900C09A9591F7DC
:10227000ECCF3FBF089521B1242B21B99B01220F40
:10228000331F620F731F0E941A1187EC90E00197B1
:10229000F1F700C00000089540E40C943B110F9347
:1022A0001F93CF93DF93C62FD42F122FFC0182816F
:1022B0008823C9F06093A4010E94ED1F9093A301AD
:1022C0008093A20180E28C0F883008F057C0C7705D
:1022D00081E001C0880FCA95EAF7DF91CF911F9185
:1022E0000F910C9425158091A401681330C0809142
:1022F000A2019091A3010E94F91F883C910538F535
:1023000000E20D0FCD17B9F080E28C0F883040F459
:10231000C77081E001C0880FCA95EAF70E942C15AA
:10232000083028F581E09D2F977001C0880F9A959D
:10233000EAF70E942515812F0E9412150830F0F44B
:10234000D77081E001C0880FDA95EAF70AC080E211
:102350008C0F883098F4C77081E001C0880FCA954F
:10236000EAF7DF91CF911F910F910C942C15812FDB
:10237000DF91CF911F910F910C941215DF91CF91A6
:102380001F910F9108959C01CB01233F4CE5340729
:10239000F9F078F4283DFCE53F07B9F0293D4CE51C
:1023A000340711F1273D3C4531F526E241EE61EE5F
:1023B0001EC0253FFCE53F0799F070F0263F3C45E5
:1023C000D1F427E245EE66EE12C027E245EE0EC0DC
:1023D00026E241EE60EE0BC027E245EE64EE07C058
:1023E00026E241EE62EE03C028E241E065EE0E9483
:1023F0004F1180E00895FC018281882319F010922A
:10240000A401089581E008959093AA018093A90101
:102410000895E091A901F091AA01309721F001906F
:10242000F081E02D099480E00895E091A901F091F8
:10243000AA01309721F00280F381E02D09940895DC
:10244000E091A901F091AA01309739F022E0DC0176
:102450002C930480F581E02D099408952091A70123
:102460003091A8012817390771F09093A801809343
:10247000A701E091A901F091AA01309721F006800F
:10248000F781E02D099408952091A5013091A601CE
:102490002817390771F09093A6018093A501E09168
:1024A000A901F091AA01309721F00084F185E02D77
:1024B0000994089585B7806885BF85B7806885BF12
:1024C000089508950C9461120C9462120C94611298
:1024D0000C9461120E945A120E9466120C946412AB
:1024E00081E008950E94E41F0E94C9090E946D20A6
:1024F0000E943D100C9468124F925F926F927F92EF
:102500008F929F92AF92BF92CF92DF92EF92FF9203
:102510000F931F93CF93DF93CDB7DEB72A970FB6F4
:10252000F894DEBF0FBECDBF0E941F0A0E9470123A
:10253000811111C08FEF89838A831B820E94ED1F56
:102540008160782F9D838C8349815A816B818D8135
:102550000E94581372C02CEAE22E21E0F22E00E015
:1025600010E0D02E802F0E94BC094B015C01F701C6
:1025700041905190619071907F01462657266826C0
:102580007926411451046104710431F40F5F1F4F27
:102590000630110531F7CECF8091580281FD0E949F
:1025A000C80980E090E0B301A201082E04C076952E
:1025B0006795579547950A94D2F740FF38C08E83A8
:1025C000DF82C12CD12C7601C39404C0CC0CDD1C5D
:1025D000EE1CFF1C8A95D2F78C209D20AE20BF20D8
:1025E00081E089288A288B2809F480E088870E9466
:1025F000ED1F8160782F9A8789874E815F8168857A
:102600008A850E945813000F111F000F111FF80137
:10261000E455FE4F80819181A281B381C826D926DD
:10262000EA26FB26C082D182E282F38206C00196AE
:102630008231910509F0B7CFA9CF0E94FF210E94F6
:1026400009129091AB018917E1F00E940912809361
:10265000AB012A960FB6F894DEBF0FBECDBFDF9157
:10266000CF911F910F91FF90EF90DF90CF90BF908F
:10267000AF909F908F907F906F905F904F900C9451
:1026800034042A960FB6F894DEBF0FBECDBFDF919B
:10269000CF911F910F91FF90EF90DF90CF90BF905F
:1026A000AF909F908F907F906F905F904F90089524
:1026B000CF93DF93CDB7DEB72B970FB6F894DEBF7D
:1026C0000FBECDBF4F83588769877A878B87DE011E
:1026D000119686E0FD0111928A95E9F785E0FE01E9
:1026E000379601900D928A95E1F749815A816B8165
:1026F0007C818D819E810E949E1A2B960FB6F89444
:10270000DEBF0FBECDBFDF91CF910895FC01808168
:1027100091810E94721D0895882309F41AC182389C
:10272000C1F40E94091281FD14C169E38091100176
:10273000909111010E943C1F0E94FF1D2FEF81EE1E
:1027400094E0215080409040E1F700C0000069E330
:1027500019C08338F9F40E94091280FDFAC063E5BC
:1027600080911001909111010E943C1F0E94FF1D59
:102770002FEF81EE94E0215080409040E1F700C0BF
:10278000000063E580911001909111010E943E1FAD
:102790000C94FF1D8438C1F40E94091282FDD9C037
:1027A00067E480911001909111010E943C1F0E94EA
:1027B000FF1D2FEF81EE94E0215080409040E1F723
:1027C00000C0000067E4DECF9CEF980F913A40F420
:1027D000682F80911001909111010E943C1FD8CF69
:1027E00090E2980F983050F4877091E001C0990FF3
:1027F0008A95EAF7892F0E94B41DCACF9BE5980FEE
:10280000933070F4853A29F0863A31F083E890E00D
:1028100005C081E890E002C082E890E00C942E129E
:1028200098E5980F973108F08EC0883A09F445C0B2
:10283000893A09F445C08A3A09F445C08B3A09F44B
:1028400045C08C3A09F445C08B3B09F445C08C3B2C
:1028500009F445C08D3A09F445C0803B09F445C0F0
:102860008E3A09F445C08F3A09F445C0813B09F41A
:1028700045C0823B09F445C0833B09F445C0843B15
:1028800009F445C0853B09F445C0863B09F445C0C1
:10289000873B09F445C0883B09F445C0893B09F4EE
:1028A00045C08D3B09F445C08E3B09F445C08A3BC9
:1028B00009F445C080E090E044C082EE90E041C061
:1028C00089EE90E03EC08AEE90E03BC085EB90E060
:1028D00038C086EB90E035C083EB90E032C084EBEB
:1028E00090E02FC087EB90E02CC08CEC90E029C0EA
:1028F0008DEC90E026C083E891E023C08AE891E067
:1029000020C082E991E01DC084E991E01AC081E213
:1029100092E017C083E292E014C084E292E011C01A
:1029200085E292E00EC086E292E00BC087E292E080
:1029300008C08FE690E005C080E790E002C08AE220
:1029400092E00C944412803F20F00E9407210C94E6
:10295000F4210895882309F464C0823879F40E9430
:10296000091281FF5EC069E380911001909111010D
:102970000E943C1F0E94FF1D69E310C08338B1F420
:102980000E94091280FF4DC063E580911001909173
:1029900011010E943C1F0E94FF1D63E58091100100
:1029A000909111010E943E1F0C94FF1D843879F410
:1029B0000E94091282FF35C067E480911001909156
:1029C00011010E943C1F0E94FF1D67E4E7CF9CEFAE
:1029D000980F913A10F4682FE1CF90E2980F983059
:1029E00050F4877091E001C0990F8A95EAF7892F1A
:1029F0000E94BA1DD9CF9BE5980F933020F480E058
:102A000090E00C942E1298E5980F973120F480E016
:102A100090E00C944412803F20F00E946F210C94AF
:102A2000F4210895CF93C82F0E948C13C93349F421
:102A30002FEF87EE93E0215080409040E1F700C0F7
:102A400000008C2FCF910C94AA14882321F00E94AF
:102A5000B41D0C94FF1D0895882321F00E94BA1D17
:102A60000C94FF1D0895CF92DF92EF92FF920F9387
:102A70001F93CF93DF937C01062FC72FFC01158195
:102A800012951F70D281D1110E94D11D0E94AA1DE2
:102A9000882379F0DD2369F080E2800F883048F0E8
:102AA00082E00E94491E0E94AA1D91E0D82ED926DC
:102AB00001C0D12CCC2EC2948FE0C8228C2D90E086
:102AC000FC01EA5AFF4F0C942F2D8C2F807FCF7082
:102AD000882311F0C295C07FDD2399F0CC2309F43F
:102AE000C4C180E2800F883010F0011104C08C2F27
:102AF0000E94B41D03C08C2F0E94C41D0E94FF1DA4
:102B0000B4C1802F0E94AA14CC2309F4D3C180E25F
:102B1000800F883010F0011104C08C2F0E94BA1D64
:102B200003C08C2F0E94CA1D0E94FF1DC3C18C2FA1
:102B3000807FCF70803211F0C295C07F002319F0E2
:102B40000130C9F022C0DD2371F0112341F01130B2
:102B500031F40E94E41D8C2B0E94EC1DABC10E943D
:102B6000E41D8C2B1DC0112319F0113009F4A2C1F2
:102B70000E94F51D25C0DD2321F0163008F09AC112
:102B80000EC0153008F096C11BC0DD2361F0112383
:102B900031F0F701858180FF68C18F7085838C2FAC
:102BA0000E94251587C1112359F0093309F06EC120
:102BB000FFEF27EE83E0F15020408040E1F764C151
:102BC0008C2F0E942C1576C18C2F8695869583704C
:102BD00019F0813061F06EC1DD2321F0802F9C2F30
:102BE000937002C080E090E00E942E126BC1DD2342
:102BF00021F0802F9C2F937002C080E090E00E9413
:102C0000441260C1DD23F9F0053F51F0063F71F039
:102C1000043FA9F4809193039091940381600BC0C9
:102C20008091930390919403826005C080919303F7
:102C30009091940384609093940380939303802FE6
:102C40000E9407211EC0053F51F0063F71F0043F6E
:102C5000A9F480919303909194038E7F0BC080918F
:102C60009303909194038D7F05C08091930390917D
:102C700094038B7F9093940380939303802F0E94FF
:102C80006F210E94F4211EC18C2F837009F045C072
:102C9000D11114C1402F429546954770440F440FFF
:102CA000602F6F70862F90E0A0E0B0E0042E04C08B
:102CB000880F991FAA1FBB1F0A94D2F704FF10C0E8
:102CC0000FE010E020E030E004C0000F111F221FD1
:102CD000331F4A95D2F7009510952095309503C083
:102CE00000E010E09801C695C695C370BC01CD0107
:102CF000602B712B822B932BC23049F058F4C130DA
:102D000019F00E94EF1BDAC00E94DD1BD7C00E94A1
:102D1000011CD4C00E94DB1BD1C0DD2319F08C2F15
:102D2000817001C08695882309F4C8C0402F429560
:102D300046954770440F440F602F6F70862F90E0C8
:102D4000A0E0B0E0042E04C0880F991FAA1FBB1F8B
:102D50000A94D2F704FF10C00FE010E020E030E04A
:102D600004C0000F111F221F331F4A95D2F7009590
:102D700010952095309503C000E010E09801C695AD
:102D8000C695C370BC01CD01602B712B822B932B98
:102D9000C23049F058F4C13019F00E94B41C8EC002
:102DA0000E94A21C8BC00E94C61C88C00E94151CD9
:102DB00085C0CF70DD2339F08C2F0E943B1C802F03
:102DC0000E9425157BC0802F0E942C158C2F0E94FD
:102DD0005C1C74C0023F01F128F4003F41F0013F48
:102DE000A1F03FC0033FF9F0043F39F13AC0DD23C1
:102DF00041F0153008F05EC08C2F8F710E94811C4D
:102E000059C0163008F056C0F7CFDD2339F08C2FAB
:102E10008F710E943B1C4EC0DD23C9F38C2F8F7134
:102E20000E945C1C47C0DD2329F08C2F8F710E940B
:102E3000261C40C00E94211C3DC0DD2349F0CF71FB
:102E40008C2F0E943B1C63E08C2F0E94341E32C0EA
:102E500081E00E94491E123068F182E00E94491E02
:102E600029C0DD2331F0112391F2802F0E948C13B1
:102E700021C0112399F2093349F49FEFE7EEF3E003
:102E80009150E040F040E1F700C00000802F0E9428
:102E9000AA1410C04C2F4F70602FC7010E94080762
:102EA0000E944C1B0FC04C2F4F70602FC7010E9417
:102EB0000B0708C088EF8C0D843020F40E940912A3
:102EC0000E943404DD20C9F00E94A61D80FD15C0BB
:102ED000F70112820E94A01D0E943B1CC7010E94A4
:102EE00086170E94A01DDF91CF911F910F91FF9037
:102EF000EF90DF90CF900C945C1CDF91CF911F91ED
:102F00000F91FF90EF90DF90CF9008950F931F9354
:102F1000CF93DF93EC01988189812B813C81232B16
:102F200031F08F3F31F481E09F3F19F403C081E01D
:102F300001C080E080FD13C0CE010E9446048823BA
:102F400071F0688179818A810E947D1D8C010E94C7
:102F5000D81C0E94C91BB801CE010E943315DF9115
:102F6000CF911F910F9108950E94D11D0E94E11DE4
:102F70000E94FF1D0E949A220E94F42180E090E0AE
:102F80000E942E1280E090E00C9444128091100177
:102F9000909111010E94401F0C94B4170E94C11D12
:102FA0000C94C617E92FE295EF704E2F50E0FA010E
:102FB0003297EE30F105B0F4EA59FF4F0C942F2D03
:102FC000803F91F018F4883E68F40EC0843F51F4BD
:102FD0000BC0883E48F0813F29F406C093FB882748
:102FE00080F9089580E0089581E008950E94721D9F
:102FF0000E94D2170895CF93DF9300D000D01F9284
:10300000CDB7DEB70F900F900F900F900F90DF911C
:10301000CF910895CF93DF9300D000D000D0CDB7EB
:10302000DEB726960FB6F894DEBF0FBECDBFDF9198
:10303000CF9108951F93CF93DF93C091C50116E000
:103040008091C601C81799F0D0E01C9FF0011D9F28
:10305000F00D1124E953FE4F40815181628173814B
:10306000848195810E940A182196C770E9CFDF916B
:10307000CF911F9108954091F7015091F80160910F
:10308000F9017091FA018091FB019091FC010C947F
:103090000A18CF938091FC0182958F7009F05FC070
:1030A0008091F901882309F45AC08091C501B0913B
:1030B000C6017091F701A091F8014091FA01509179
:1030C000FB0191E07F3F09F090E0692FC6E08B178C
:1030D00009F445C04115510521F0AF3F21F020E032
:1030E00003C021E001C0262F90E020FD35C0C89F1D
:1030F000F001C99FF00D1124E953FE4F21812A13DD
:103100002BC02081271328C02281211125C02381B3
:1031100034812417350710F421503109241B350B55
:10312000283C3105C8F42091FC012F7020612093C8
:10313000FC0126E0289FF001299FF00D1124E453A3
:10314000FE4F80818F708061808387EF91E00E94C5
:103150008617CF910C941A1801968770B8CFCF912B
:103160000895AF92BF92CF92DF92EF92FF920F93AA
:103170001F93CF93DF93CDB7DEB761970FB6F89467
:10318000DEBF0FBECDBF8C0185E0F801DE011D96CC
:1031900001900D928A95E1F7D8014C9111965C91BE
:1031A00011971296EC903091F7016091F80180919F
:1031B000FA019091FB01009731F06F3F31F421E06B
:1031C0003F3F19F403C021E001C020E0B22FB170ED
:1031D000BB2E20FD60C1F801C380D480A090F9010E
:1031E000AA2009F4EEC02091FC01C816D90628F0E7
:1031F000D601A81BB90BCD0104C0809590958C0D0C
:103200009D1DFF24F394883C910580F0F12C207FD4
:1032100009F09CC07C2DD98AC88A6E2D89890E94AC
:10322000FB1787EF91E00E9486172DC1822F807FC8
:1032300009F054C0561314C0431312C0FE2CE11001
:103240000FC02F7020612093FC010E943B1887EF74
:1032500091E00E9486178091FC01F80185835CC192
:10326000CD2831F05F3F31F481E04F3F19F403C0C6
:1032700081E001C080E080FD03C081E08E2502C0B6
:1032800080E090E0F82FF170FF2E80FF1CC080914D
:10329000C5012091C60136E0821709F41AC190E0F9
:1032A000389FF001399FF00D1124E953FE4F6181E1
:1032B000561306C06081461303C06281E61203C044
:1032C00001968770E9CFFE2CEE2009F425C180918C
:1032D000FC0181608093FC01F12C1EC1561309C0D2
:1032E000431307C0E11005C08091FC01F8018583FC
:1032F000A4C04D875E878D859E850E94F617882322
:1033000079F1EE2069F12091FC01822F82958F7076
:1033100090E0029774F08091F7019091F8019887FE
:103320008F831986DB86CA862C87CE0107960E947A
:10333000861786E0F801A7EFB1E001900D928A951B
:10334000E1F70E9449180E943B180DC0561771F012
:103350004D875E878D859E850E94F61781111AC064
:10336000C8010E948617FF24F394D6C04313F0CF00
:10337000E110EECF8091FC01F8018583C8010E9425
:10338000861786E0E7EFF1E0DF011D928A95E9F705
:10339000FA2CC2C0EE2021F32091FC01822F8295ED
:1033A0008F7090E002972CF28091F7019091F801D4
:1033B0009A8389831B82DD82CC822E83CE01019683
:1033C000B6CFC816D90628F0F601E81BF90BCF01D5
:1033D00004C0809590958C0D9D1D883C910548F00A
:1033E000F12C7C2DD98AC88A6E2D89890E94FB1701
:1033F0004AC0FE2CEE2009F4B3CF561333C043135A
:1034000031C02091FC0120FD24C0822F82958F7055
:10341000482F50E041155105E1F0D80115962C9345
:1034200015974F30510549F08F5F982F9295907FF7
:10343000822F8F70892B15968C93C8010E94861756
:1034400086E0F801A7EFB1E001900D928A95E1F7CF
:103450003DC086E0F801A7EFB1E001900D928A959A
:10346000E1F75AC04D875E878D859E850E94F617CD
:1034700081115FCF8091FC0181608093FC01C801C4
:103480000E94861749C0E7EFF1E086E0DF011D9258
:103490008A95E9F71BC0EE2009F462CF4D875E875D
:1034A0008D859E850E94F617F82E882309F458CF43
:1034B00086E0F801A7EFB1E001900D928A95E1F75F
:1034C00087EF91E00E9486130E9449180E943B18E2
:1034D00023C04D875E878D859E850E94721D292F92
:1034E00022952F70223028F49F7039F0811105C089
:1034F0000BC0243028F49F7049F4805E883020F09F
:10350000C8010E948617BF2CFB2C06C0D801159657
:103510009C91907F91F7F8CF8F2D61960FB6F8941C
:10352000DEBF0FBECDBFDF91CF911F910F91FF90F6
:10353000EF90DF90CF90BF90AF9008951F93CF93FF
:10354000DF93CDB7DEB72C970FB6F894DEBF0FBE72
:10355000CDBF4F83588769877A878B879C87CE0139
:1035600007960E94B1188823D1F09F8188852A850B
:103570003B85232B31F08F3F31F481E09F3F19F4DD
:1035800003C081E001C080E080FD47C04F815885C5
:1035900069857A858B859C850E940A183EC086E0E5
:1035A000FE013796DE01119601900D928A95E1F7A2
:1035B000FF81E8856A857B856115710531F0EF3FF4
:1035C00031F481E0FF3F19F403C081E001C080E0E5
:1035D00080FD23C02091C60130E0C90101968770AB
:1035E00099274091C50150E084179507F1F1F983BF
:1035F000EA837D836C8396E0929FD001939FB00D08
:103600001124A953BE4FFE01319601900D929A9557
:10361000E1F78093C6010E941A1816E08091C50157
:103620009091C601891771F1189FC0011124895327
:103630009E4F0E94B118882329F1E091C5011E9F79
:10364000F0011124E953FE4F408151816281738161
:10365000848195810E940A188091C50190E00196AD
:10366000877099278093C501D9CF0E94CE171092F9
:10367000C6011092C501E7EFF1E086E0DF011D927F
:103680008A95E9F72C960FB6F894DEBF0FBECDBF32
:10369000DF91CF911F910895EF92FF920F931F93A7
:1036A000CF93DF938C01892B09F46CC0F12CEE24AD
:1036B000E394E8012196F8018491843740F4843042
:1036C00008F051C0813081F0823019F15BC085373C
:1036D00009F444C0A8F19CE7980F903708F052C055
:1036E0008F770E94AA1441C00E5F1F4FFE01849184
:1036F00090E2980F983050F48770FE2D01C0FF0FB4
:103700008A95EAF78F2F0E94D41D14C00E948C1353
:103710002DC00E5F1F4FFE01849190E2980F9830EC
:1037200060F48770FE2D01C0FF0F8A95EAF78F2F96
:103730000E94DA1D0E94FF1D19C00E94AA1416C023
:103740000E5F1F4FFE01C491CC2381F08FE99FE0F3
:103750000197F1F700C00000C150F6CF0E5F1F4F78
:10376000FE01F49003C00E948C138E018F2D8823DC
:1037700009F49FCFEFE9FFE03197F1F700C00000B7
:103780008150F5CFDF91CF911F910F91FF90EF9076
:103790000895089508950C94CA1B0C94CB1B0E94A5
:1037A000CD1B609347027093480280934902909327
:1037B0004A020C94B4170C94CF1B0F931F930091E3
:1037C0004702109148022091490230914A02602B31
:1037D000712B822B932B1F910F910C94CF1B0F9366
:1037E0001F930091470210914802209149023091A5
:1037F0004A0260237123822393231F910F910C941B
:10380000CF1B0F931F930091470210914802209104
:10381000490230914A0260277127822793271F911E
:103820000F910C94CF1B0C94CA1B0E94131C609325
:1038300043027093440280934502909346020C9495
:10384000B41760E070E0CB010C94151C0F931F932C
:1038500041E050E060E070E08A019B0104C0000F8D
:10386000111F221F331F8A95D2F7C901B8011F917A
:103870000F910C94151C0F931F9341E050E060E0F2
:1038800070E004C0440F551F661F771F8A95D2F75A
:103890008091430290914402A0914502B09146026A
:1038A0008A019B01082B192B2A2B3B2BC901B8013C
:1038B0001F910F910C94151C0F931F9341E050E042
:1038C00060E070E004C0440F551F661F771F8A95A3
:1038D000D2F74095509560957095809143029091F4
:1038E0004402A0914502B09146028A019B0108233F
:1038F00019232A233B23C901B8011F910F910C946E
:10390000151C0F931F9341E050E060E070E004C08D
:10391000440F551F661F771F8A95D2F78091430287
:1039200090914402A0914502B09146028A019B0108
:10393000082719272A273B27C901B8011F910F9192
:103940000C94151C0F931F93009143021091440295
:103950002091450230914602602B712B822B932BD4
:103960001F910F910C94151C0F931F93009143020C
:103970001091440220914502309146026023712348
:10398000822393231F910F910C94151C0F931F9367
:103990000091430210914402209145023091460269
:1039A00060277127822793271F910F910C94151C74
:1039B000089522E1929F800D1124E82FE695E69567
:1039C000E695877051E001C0550F8A95EAF785E0CA
:1039D000E89FF0011124E350FE4F20E030E070E05A
:1039E0004081CB01022E02C0969587950A94E2F79A
:1039F0008170819584278523842781932F5F3F4F92
:103A00002530310569F7089522E1929F800D112438
:103A1000682F669566956695982F977085E0689FE4
:103A2000B001112440E050E080E0FB01E40FF51FFD
:103A3000E350FE4F208130E0092E02C036952795D5
:103A40000A94E2F721703327042E01C0220F0A9452
:103A5000EAF7822B4F5F5F4F4530510531F70895EC
:103A6000BF92CF92DF92EF92FF920F931F93CF936B
:103A7000DF938C01C0904302D0904402E090450255
:103A8000F09046028091470290914802A09149022D
:103A9000B0914A02C82AD92AEA2AFB2ACFE1D0E00B
:103AA000D701C6010C2E04C0B695A79597958795AA
:103AB0000A94D2F780FD04C0219790F7B12C07C07B
:103AC000BC2EB8018C2F0E9427070197A9F38B2DDC
:103AD000DF91CF911F910F91FF90EF90DF90CF90EA
:103AE000BF900895CF93DF93EC010E94301DBE017B
:103AF0000E942707DF91CF9108951F93CF93DF9303
:103B0000EB019091C401992321F0CB010E94721D19
:103B100013C0882349F0CB010E94301D182F682F55
:103B2000CE010E94D91C04C0CB010E94041D182F95
:103B3000BE01812F0E942707DF91CF911F91089529
:103B400080914B02859585958595089580914B02CE
:103B50008770089590914B02977081E009F480E09E
:103B6000089580915702089590915702892B809370
:103B700057020895809590915702892380935702A8
:103B8000089510925702089590915602892B8093C0
:103B9000560208958095909156028923809356028B
:103BA000089510925602089590915502892B8093A2
:103BB000550208958095909155028923809355026E
:103BC000089510925502089580914C020895089529
:103BD0000C94E71D0C94E81D90914C02981721F06D
:103BE00080934C020C94EA1D089580914C02882326
:103BF00029F010924C0280E00C94EA1D0895E091A7
:103C00001001F0911101809157028083E091100121
:103C1000F0911101908180915602892B8083E0916F
:103C20001001F0911101908180915502892B8083C0
:103C300080914C02882381F0E0911001F0911101F4
:103C40009081892B808380911001909111010E94B5
:103C5000091F81110E94F51D8091100190911101A1
:103C60000C9415120C94E71D98E0899F9001112483
:103C7000262B20934B020E943B1C80914B02859582
:103C8000859585950C94321E10924B0280E00C9421
:103C9000321E20914B028095822380934B02982FF5
:103CA000977079F430E0482F082E000C550B24173C
:103CB000350739F08595859585950E945C1C0C9497
:103CC000441E089580E090E00E94502D21E08C3E3B
:103CD0009E4F09F020E0822F089582E090E00C943E
:103CE000422D83E090E00C94422DCF9384E090E04D
:103CF0000E94422DC82F81E290E00E94422D2C2F7D
:103D000030E0A901582BCA01CF910895CF93C92F54
:103D1000682F84E090E00E94562D6C2F81E290E0A5
:103D2000CF910C94562DAB01BC018FE090E00C9428
:103D3000682DAB01BC0183E190E00C94682D60E03C
:103D400070E0CB010C94991E60E070E0CB010E9402
:103D5000931E0C949F1E6CEE7EEF80E090E00E941C
:103D6000742D60E082E090E00E94562D60E083E0D8
:103D700090E00E94562D1092470210924802109235
:103D8000490210924A0260E084E090E00E94562DC1
:103D900060E081E290E00E94562D60E085E090E0D6
:103DA0000E94562D60E086E090E00E94562D6FEF55
:103DB00087E090E00E94562D40E050E0BA0188E094
:103DC00090E00E94682D60E08DE090E00E94562D0A
:103DD00040E050E0BA0188E190E00E94682D60E088
:103DE00087E190E00E94562D40E050E0BA018CE15E
:103DF00090E00E94682D60E080E290E00E94562DE5
:103E00000C94A41E0C94AB1E682F8EE090E00C94D2
:103E1000562DFC01329697E080E0915029F02191D7
:103E20002223D9F38F5FF9CF08959C01FC013296CC
:103E30009FEF80E04191461789F09F3F19F44111AF
:103E400001C0982F8F5F8630A9F79F3F39F0F901A5
:103E5000E90FF11D97FDFA956283089508959C017D
:103E60002A5F3F4FFC014281461301C01282019636
:103E700082179307B9F708950C94151F0C942F1F00
:103E8000029626E0FC0111922A95E9F7089508951B
:103E90000C94471F0C94471FCF930E944A1F0E9407
:103EA0001F0A0E94481FC0E08C2F0E94BC09672B8C
:103EB000682B692B29F4CF5FC630B1F780E001C0D1
:103EC00081E0CF9108950C94471F0C94631F0E94CA
:103ED000651F80919F03843009F439C01092590204
:103EE00020E488E190E00FB6F894A89580936000F4
:103EF0000FBE2093600080E00E9434040E947D1079
:103F000080915A0281110AC081E080935A02809107
:103F10007102817080935B020E94AB0F0E94651F4B
:103F200083B7817F846083BF83B7816083BF7894C8
:103F3000889583B78E7F83BF0FB6F894A89580913C
:103F40006000886180936000109260000FBE089549
:103F50000C94471F0E94CE170E9409120E9434043D
:103F600010925A0280915B0281110E9475100E948A
:103F7000BD0F0C94A81F1F920F920FB60F92112421
:103F80008F939F93AF93BF9380915902811113C078
:103F90008091950390919603A0919703B091980317
:103FA0004196A11DB11D8093950390939603A09314
:103FB0009703B0939803BF91AF919F918F910F900A
:103FC0000FBE0F901F90189582E084BD93E095BDC1
:103FD0009AEF97BD80936E0008952FB7F894809163
:103FE000950390919603A0919703B09198032FBFEA
:103FF0000895CF92DF92EF92FF920F931F932FB706
:10400000F8944091950350919603609197037091B5
:1040100098032FBF6A017B01EE24FF248C0120E06E
:1040200030E0C016D106E206F30610F44150510903
:104030009A01281B390BC9011F910F91FF90EF9036
:10404000DF90CF90089578941F920F920FB60F9241
:1040500011248F939F93AF93BF9380919503909179
:104060009603A0919703B09198030196A11DB11DED
:104070008093950390939603A0939703B09398032E
:10408000BF91AF919F918F910F900FBE0F901F9096
:10409000189581E08093E00080E28093D800109230
:1040A000C9008FE19EE40197F1F700C0000087E0AE
:1040B00090EBDC018093A8039093A903A093AA033B
:1040C000B093AB039CE088E10FB6F894A895809379
:1040D00060000FBE90936000FFCF0E94621E8111AE
:1040E00002C00E94021F0E946D1E809358020E940F
:1040F000751E90939A03809399030E94711E682FF6
:1041000070E080E090E00C94DB1B80915F0280FF08
:104110000BC06091150185E0689FB0011124759571
:104120006795759567952BC081FF09C06091150152
:1041300085E0689FB00111247595679520C082FFC6
:1041400007C06091150185E0689FB001112417C078
:1041500090915E029923D1F060911401961788F72F
:104160002091150185E0289F90011124929FA001C4
:10417000939F500D112470E0CA010E941B2D6038DE
:10418000710540F46115710519F406C065E070E031
:10419000862F08958FE7089581E0089580915F024A
:1041A00080FF08C06091130170E075956795759563
:1041B000679521C081FF06C06091130170E075957D
:1041C000679519C082FF04C06091130170E010C0B0
:1041D00090915E02992399F0609112019617A0F7D1
:1041E00080911301899FC001112470E00E941B2D52
:1041F0006038710540F46115710519F406C061E07D
:1042000070E0862F08958FE7089581E00895803F3C
:1042100021F40E948520819504C0813F29F40E94E9
:104220008520809363020895823F21F40E948520B7
:10423000819504C0833F29F40E9485208093620207
:104240000895893F19F40E94CE2005C08A3F31F4B9
:104250000E94CE2081958093640208958B3F21F4C3
:104260000E94CE20819504C08C3F29F40E94CE206C
:10427000809365020895843F21F4809161028160FA
:1042800017C0853F21F480916102826011C0863F92
:1042900021F48091610284600BC0873F21F48091FA
:1042A0006102886005C0883F31F4809161028061BD
:1042B0008093610208958D3F21F480915F028160B7
:1042C0000BC08E3F21F480915F02826005C08F3F5A
:1042D00029F480915F02846080935F020895803F9B
:1042E00039F48091630287FF6CC01092630269C049
:1042F000813F29F4809163021816BCF362C090914B
:104300006202823F29F497FF5CC01092620259C09A
:10431000833F19F41916CCF354C0893F41F48091BE
:10432000640218160CF04DC0109264024AC08A3F15
:1043300029F48091640287FF44C0F6CF8B3F39F4A3
:104340008091650287FF3DC0109265023AC08C3FA4
:1043500029F4809165021816BCF333C0843F21F420
:10436000809161028E7F17C0853F21F480916102A8
:104370008D7F11C0863F21F4809161028B7F0BC03D
:10438000873F21F480916102877F05C0883F31F427
:10439000809161028F7E8093610213C08D3F21F472
:1043A00080915F028E7F0BC08E3F21F480915F026F
:1043B0008D7F05C08F3F29F480915F028B7F8093B2
:1043C0005F028091620281110EC0809163028111AF
:1043D0000AC080916402811106C08091650281113A
:1043E00002C010925E02089580E692E00E942012C0
:1043F0000E94ED1F90935D0280935C0208951F93CD
:10440000CF93DF9380915C0290915D020E94F91F2F
:10441000AC0190915E02992321F02091160130E0C9
:1044200006C0209117018AE0289F900111244217AD
:10443000530708F47BC080916202C0916302D0915F
:10444000640210916502811107C0C1116BC0D111C6
:1044500069C0111167C06AC09F3F19F09F5F9093B8
:104460005E02181624F40E948520809362028091D7
:10447000620287FF05C00E948520819580936202B9
:104480001C1624F40E9485208093630280916302AD
:1044900087FF05C00E94852081958093630230913B
:1044A00062023323E1F0209163022223C1F045EB45
:1044B0003403C0011124992319F09093620203C0C0
:1044C00081E08093620235EB2303C001112499231C
:1044D00019F09093630203C081E0809363021D167C
:1044E00024F40E94CE20809364028091640287FFAE
:1044F00005C00E94CE20819580936402111624F499
:104500000E94CE20809365028091650287FF05C0DE
:104510000E94CE20819580936502DF91CF911F91FB
:104520000C94F4219F3F09F099CFAACFDF91CF914E
:104530001F910895E0E6F2E086E0DF011D928A9582
:10454000E9F710925E0210925F02089580916E0268
:1045500008950F931F93CF93DF9300D01F92CDB791
:10456000DEB78C010E940325823011F0843021F5E2
:1045700084E089831B830A8382E08093E9008FEFC4
:104580009091E800815095FD06C095ED9A95F1F760
:1045900000008111F5CF8091E80085FF0DC040E05B
:1045A00050E063E070E0CE0101960E9420258091EA
:1045B000E8008E778093E8000F900F900F90DF91C6
:1045C000CF911F910F910895CF93DF9300D01F9249
:1045D000CDB7DEB720919F03243031F523E0298346
:1045E000805891099B838A8382E08093E9008FEF52
:1045F0009091E800815095FD06C095ED9A95F1F7F0
:1046000000008111F5CF8091E80085FF0DC040E0EA
:1046100050E063E070E0CE0101960E942025809179
:10462000E8008E778093E8000F900F900F90DF9155
:10463000CF910895CF93DF93EC010E940325823040
:1046400011F08430F9F482E08093E9008FEF9091CB
:10465000E800815095FD06C095ED9A95F1F70000B0
:104660008111F5CF8091E80085FF0CC040E050E05B
:1046700066E070E0CE010E9420258091E8008E77F0
:104680008093E800DF91CF910895CF93DF93EC0101
:104690000E940325823011F0843039F581E0809347
:1046A000E9008FEF9091E800815095FD06C095EDEF
:1046B0009A95F1F700008111F5CF8091E80085FF10
:1046C00014C040E050E068E070E0CE010E94202578
:1046D0008091E8008E778093E80088E0FE01A6E6EE
:1046E000B2E001900D928A95E1F7DF91CF910895A4
:1046F00080919E03811109C00E94B1260E940E275D
:104700008091E20084608093E200089510929E03FD
:104710000895089508950C94AA1F42E061EC81E089
:104720000E942A2642E261EC82E00C942A268091C3
:10473000A103833009F460C030F4813071F082301D
:1047400009F499C008958A3009F485C08B3009F4C2
:104750006BC0893009F0A7C020C08091A003813AC6
:1047600009F0A1C08091E800877F8093E8008091E4
:10477000A4039091A503892B21F468E086E692E0DA
:1047800003C060E080E090E070E00E946B258091C3
:10479000E8008B778093E80008958091A003813230
:1047A00009F081C08091A4039091A503029708F0BD
:1047B0007AC08091E800877F8093E8008091E800CC
:1047C00082FD05C080919F038111F8CF6CC02091BC
:1047D000F3008091F20090E0922B029729F48091EF
:1047E000F1008B7F813021F48091F10080936E0283
:1047F0008091E8008B7753C08091A003813A09F043
:1048000052C08091A4039091A503892B09F04BC05D
:104810008091E800877F8093E8008091E80080FF26
:10482000FCCF8091220136C08091A0038132D9F55E
:104830008091A4039091A503892BA9F58091E800AC
:10484000877F8093E8000E945F268091A203809377
:1048500022010C94CE178091A003813221F5809122
:10486000E800877F8093E8000E945F268091A30381
:1048700080936F0208958091A003813AA1F4809102
:10488000E800877F8093E8008091E80080FFFCCFFC
:1048900080916F028093F1008091E8008E77809381
:1048A000E8000C945F26089584B7877F84BF0FB615
:1048B000F894A895809160008861809360001092C0
:1048C00060000FBE80E880936100109261000E943A
:1048D0006A120E94B1260E940E278091E200846035
:1048E0008093E20078940E94A3290E94721288E1CA
:1048F00091E00E94041280919F03853069F40E9428
:10490000671F80919D038823B1F30E944C1F882369
:1049100091F30E940A25EFCF0E947C120E94801022
:10492000EACF0C949324292F332723303105C9F083
:1049300060F42130310581F02230310509F04AC0A0
:104940008BE390E023E235E049C02132310511F1DB
:104950002232310579F13EC082E190E02EE535E06A
:104960003DC099278130910561F040F0823091057A
:1049700059F0039779F5EFEDF4E008C0EFE1F5E0C9
:1049800005C0E1E0F5E002C0E5EEF4E0849190E0DE
:104990009F0124C06115710541F061307105D1F4AA
:1049A00089E090E02EE435E019C089E090E025E34D
:1049B00035E014C06115710541F06130710551F4A5
:1049C00085E890E020E735E009C080E490E025EF3D
:1049D00035E004C080E090E020E030E0FA0131836F
:1049E000208308950895CF93C82F0E94F224C09386
:1049F0007002CF91089580919F03843011F081E07F
:104A0000089582E0089580917002811102C00C9493
:104A1000FB24089580E189BD82E189BD09B400FECF
:104A2000FDCF8091D8008F7D8093D8008091E000E9
:104A300082608093E0008091E00081FDFCCF0895CA
:104A4000CF92DF92EF92FF920F931F93CF93DF935A
:104A5000EC018B017A010E947E26811133C0E114A2
:104A6000F10439F0F70180819181081B190BC80FFF
:104A7000D91FC12CD12C0115110519F18091E80025
:104A800085FD16C08091E8008E778093E800E114E0
:104A9000F10449F0F70180819181C80ED91ED182BD
:104AA000C08285E00FC00E947E26882321F30AC0C1
:104AB00089918093F10001501109FFEFCF1ADF0AAD
:104AC000DACF80E0DF91CF911F910F91FF90EF90AF
:104AD000DF90CF9008952091A6033091A703261769
:104AE000370748F06115710539F42091E8002E77F9
:104AF0002093E80001C0B901FC0120E061157105B7
:104B000079F180919F038823F1F18530F1F1809153
:104B1000E80083FD3CC08091E80082FD2EC08091BA
:104B2000E80080FFEBCF2091F3008091F20090E04D
:104B3000922B6115710551F08830910538F421915F
:104B40002093F100615071090196F3CF21E008979D
:104B500009F020E08091E8008E778093E800CECFC6
:104B60002111CFCF0AC080919F03882361F0853047
:104B700061F08091E80083FD0AC08091E80082FF27
:104B8000F2CF80E0089582E0089583E0089581E007
:104B900008952091A6033091A7032617370748F000
:104BA0006115710539F42091E8002E772093E80013
:104BB00001C0B901FC0120E06115710591F18091FE
:104BC0009F03882309F440C0853009F43FC08091D9
:104BD000E80083FD3DC08091E80082FD2FC08091F8
:104BE000E80080FFE9CF2091F3008091F20090E08F
:104BF000922B6115710559F08830910540F424918C
:104C00002093F1003196615071090196F2CF21E0B5
:104C1000089709F020E08091E8008E778093E80003
:104C2000CBCF2111CCCF0AC080919F03882361F0A4
:104C3000853061F08091E80083FD0AC08091E80032
:104C400082FFF2CF80E0089582E0089583E0089526
:104C500081E00895982F973068F59093E9009817B0
:104C600039F07091EC002091ED005091F00003C0FC
:104C7000242F762F50E021FD02C09F5FECCF3091B2
:104C8000EB003E7F3093EB003091ED003D7F3093A1
:104C9000ED003091EB0031603093EB007093EC004D
:104CA0002093ED005093F0002091EE0027FDE5CF1A
:104CB00080E008958F708093E90081E008958091ED
:104CC000A00387FF11C08091E80082FD05C080919C
:104CD0009F038111F8CF11C08091E8008B770BC042
:104CE00080919F03882349F08091E80080FFF8CFEE
:104CF0008091E8008E778093E80008952091E40089
:104D00003091E50095E64091EC00842F817040FFE2
:104D100023C08091E80080FD1DC080919F038823FF
:104D200099F0853099F08091EB0085FD11C040919C
:104D3000E4005091E5002417350729F3915011F054
:104D40009A01E1CF84E0089582E0089583E0089518
:104D500081E0089580E008954091E80042FFDDCFB2
:104D600008950E941F270E942727E0EEF0E080812F
:104D700081608083E8EDF0E080818F77808319BCCB
:104D8000A7EDB0E08C918E7F8C9380818F7E8083A5
:104D900010929E0308950F931F93CF93DF930E9469
:104DA0001F270E942727C8EDD0E088818F7788834E
:104DB00088818068888388818F7D888319BC109260
:104DC0009F0310929B0310929D0310929C0300EE90
:104DD00010E0F80180818B7F8083888181608883E7
:104DE00042E060E080E00E942A26E1EEF0E080816F
:104DF0008E7F8083E2EEF0E080818160808380811D
:104E000088608083F80180818E7F808388818061C3
:104E10008883DF91CF911F910F910895E8EDF0E025
:104E200080818F7E8083E7EDF0E0808181608083E8
:104E300084E082BF81E080939E030C94CB26E8ED52
:104E4000F0E080818E7F80831092E20008951092BE
:104E5000DA001092E10008951F920F920FB60F92A0
:104E600011242F933F934F935F936F937F938F936F
:104E70009F93AF93BF93EF93FF938091E10082FFE5
:104E80000BC08091E20082FF07C08091E1008B7F20
:104E90008093E1000E94A2298091DA0080FF1FC068
:104EA0008091D80080FF1BC08091DA008E7F8093B4
:104EB000DA008091D90080FF0DC080E189BD82E1D8
:104EC00089BD09B400FEFDCF81E080939F030E945D
:104ED000782305C019BC10929F030E9486238091FD
:104EE000E10080FF19C08091E20080FF15C0809131
:104EF000E2008E7F8093E2008091E20080618093E7
:104F0000E2008091D80080628093D80019BC85E0CF
:104F100080939F030E948A238091E10084FF30C028
:104F20008091E20084FF2CC080E189BD82E189BDCF
:104F300009B400FEFDCF8091D8008F7D8093D8000A
:104F40008091E1008F7E8093E1008091E2008F7E6E
:104F50008093E2008091E20081608093E200809182
:104F60009B03882311F084E007C08091E30087FD54
:104F700002C081E001C083E080939F030E948B23E5
:104F80008091E10083FF29C08091E20083FF25C06A
:104F90008091E100877F8093E10082E080939F030E
:104FA00010929B038091E1008E7F8093E1008091BD
:104FB000E2008E7F8093E2008091E2008061809326
:104FC000E20042E060E080E00E942A268091F0004A
:104FD00088608093F0000E948923FF91EF91BF9138
:104FE000AF919F918F917F916F915F914F913F9181
:104FF0002F910F900FBE0F901F9018951F920F9238
:105000000FB60F9211242F933F934F935F936F939B
:105010007F938F939F93AF93BF93CF93DF93EF9340
:10502000FF93C091E900CF708091EC00D82FD17030
:1050300080FDD0E81092E9008091F000877F809396
:10504000F00078940E9442281092E9008091F000CC
:1050500088608093F000CD2BCF70C093E900FF9162
:10506000EF91DF91CF91BF91AF919F918F917F9100
:105070006F915F914F913F912F910F900FBE0F90C5
:105080001F9018951F93CF93DF93CDB7DEB7AA97E4
:105090000FB6F894DEBF0FBECDBFE0EAF3E080911B
:1050A000F100819323E0E83AF207C9F70E949723C1
:1050B0008091E80083FF2EC18091A0039091A1030D
:1050C000492F50E04A30510508F024C1FA01EC584C
:1050D000FF4F0C942F2D803821F0823809F01AC12F
:1050E00008C080919C0390919D03992389F0826070
:1050F0000FC08091A4038F70873008F00BC180939C
:10510000E9008091EB0085FB882780F91092E90087
:105110009091E800977F9093E8008093F1001092BF
:10512000F100D1C0282F2D7F09F0F4C0882319F099
:10513000823061F0EFC08091A203813009F0EAC0B3
:10514000933009F080E080939D032EC08091A203EC
:1051500081112AC08091A4038F702FEF280F263071
:1051600008F0D8C08093E9002091EB0020FF1CC01C
:10517000933021F48091EB00806214C09091EB0099
:1051800090619093EB0021E030E0A90102C0440F50
:10519000551F8A95E2F74093EA001092EA00809149
:1051A000EB0088608093EB001092E9008091E800AA
:1051B000877F8093E8000E945F26ACC08111AAC05F
:1051C0001091A2031F778091E3008078812B809358
:1051D000E3008091E800877F8093E8000E945F26CB
:1051E0008091E80080FFFCCF8091E300806880938D
:1051F000E300111102C082E001C083E080939F03AD
:1052000089C08058823008F085C08091A2039091B7
:10521000A3038C3D53E0950779F583E08A838AE206
:1052200089834FB7F894DE01139620E03EE051E207
:10523000E32FF0E050935700E49120FF03C0E29584
:10524000EF703F5FEF708E2F90E0EA3010F0C7965E
:1052500001C0C0968D939D932F5F243149F74FBFB6
:105260008091E800877F8093E8006AE270E0CE01D9
:1052700001960E946B2516C06091A4037091A5034E
:10528000AE014F5F5F4F0E949124BC01892B09F44E
:1052900041C09091E800977F9093E80089819A81BE
:1052A0000E94C9258091E8008B778093E80032C086
:1052B000803881F58091E800877F8093E8008091B5
:1052C0009B038093F1008091E8008E7772CF81116B
:1052D00021C08091A2039091A30399270297D4F44F
:1052E0008091E800877F8093E8008091A2038093FB
:1052F0009B030E945F2680919B03811106C08091D1
:10530000E30087FD02C081E001C084E080939F0339
:105310000E948D238091E80083FF0AC08091E800FD
:10532000877F8093E8008091EB0080628093EB00A0
:10533000AA960FB6F894DEBF0FBECDBFDF91CF9116
:105340001F9108950895CF9380919F038823A1F022
:10535000C091E900CF709091EC00892F817090FD91
:1053600080E8C82B1092E9008091E80083FD0E943C
:105370004228CF70C093E900CF9108955058BB27C1
:10538000AA270E94D6290C94812B0E94732B38F0F7
:105390000E947A2B20F039F49F3F19F426F40C94E4
:1053A000492B0EF4E095E7FB0C94432BE92F0E9468
:1053B000922B58F3BA17620773078407950720F0FA
:1053C00079F4A6F50C94B42B0EF4E0950B2EBA2FBD
:1053D000A02D0B01B90190010C01CA01A0011124FB
:1053E000FF27591B99F0593F50F4503E68F11A16A7
:1053F000F040A22F232F342F4427585FF3CF469538
:1054000037952795A795F0405395C9F77EF41F1659
:10541000BA0B620B730B840BBAF09150A1F0FF0F23
:10542000BB1F661F771F881FC2F70EC0BA0F621F0F
:10543000731F841F48F4879577956795B795F795FF
:105440009E3F08F0B0CF9395880F08F09927EE0F94
:105450009795879508950E943F2A0C94812B0E946E
:105460007A2B58F00E94732B40F029F45F3F29F00B
:105470000C94432B51110C94B52B0C94492B0E9486
:10548000922B68F39923B1F3552391F3951B550B98
:10549000BB27AA2762177307840738F09F5F5F4F07
:1054A000220F331F441FAA1FA9F335D00E2E3AF046
:1054B000E0E832D091505040E695001CCAF72BD05E
:1054C000FE2F29D0660F771F881FBB1F26173707AF
:1054D0004807AB07B0E809F0BB0B802DBF01FF27E1
:1054E00093585F4F3AF09E3F510578F00C94432B50
:1054F0000C94B52B5F3FE4F3983ED4F386957795F3
:105500006795B795F7959F5FC9F7880F911D969599
:10551000879597F90895E1E0660F771F881FBB1FF5
:10552000621773078407BA0720F0621B730B840BA2
:10553000BA0BEE1F88F7E095089529F416F00C9445
:10554000432B0C94B42B0C94492B0E949A2BA8F358
:105550009638A0F707F80F92E8942BE33AEA48EB65
:105560005FE70E94472C0F920F920F924DB75EB7E4
:105570000F920E94FD2BECEFF0E00E944C2B4F911C
:105580005F91EF91FF91E595EE1FFF1F49F0FE57E8
:10559000E0684427EE0F441FFA95E1F74195550B5B
:1055A0000E94C72B0F9007FE0C94BB2B08950E94FE
:1055B0009A2B88F09F5798F0B92F9927B751B0F0E0
:1055C000E1F0660F771F881F991F1AF0BA95C9F787
:1055D00014C0B13091F00E94B42BB1E008950C9446
:1055E000B42B672F782F8827B85F39F0B93FCCF3F9
:1055F000869577956795B395D9F73EF49095809504
:10560000709561957F4F8F4F9F4F0895E89409C023
:1056100097FB3EF490958095709561957F4F8F4FE5
:105620009F4F9923A9F0F92F96E9BB279395F695FB
:10563000879577956795B795F111F8CFFAF4BB0F79
:1056400011F460FF1BC06F5F7F4F8F4F9F4F16C0DD
:10565000882311F096E911C0772321F09EE8872F67
:10566000762F05C0662371F096E8862F70E060E023
:105670002AF09A95660F771F881FDAF7880F96959C
:10568000879597F9089597F99F6780E870E060E043
:1056900008959FEF80EC0895DF93CF931F930F93AE
:1056A000FF92EF92DF927B018C01689406C0DA2EA4
:1056B000EF010E94442CFE01E894A59125913591BB
:1056C00045915591A6F3EF010E94D629FE0197015D
:1056D000A801DA9469F7DF90EF90FF900F911F9186
:1056E000CF91DF91089500240A9416161706180624
:1056F0000906089500240A941216130614060506D6
:105700000895092E0394000C11F4882352F0BB0F66
:1057100040F4BF2B11F460FF04C06F5F7F4F8F4FC9
:105720009F4F089557FD9058440F551F59F05F3F04
:1057300071F04795880F97FB991F61F09F3F79F0B3
:1057400087950895121613061406551FF2CF469535
:10575000F1DF08C0161617061806991FF1CF8695B7
:105760007105610508940895E894BB27662777279B
:10577000CB0197F908959B01AC0160E070E080E8EF
:105780009FE30C942B2A0C94432B0C94A62C0E9480
:105790009A2BD8F39923C9F3940F511DA3F3915079
:1057A000504094F059F0882332F0660F771F881F1D
:1057B00091505040C1F79E3F51052CF7880F911D25
:1057C0009695879597F908955F3FACF0983E9CF0C9
:1057D000BB27869577956795B79508F4B160939543
:1057E000C1F7BB0F58F711F460FFE8CF6F5F7F4F31
:1057F0008F4F9F4FE3CF0C94B52BFA01DC01AA0F1A
:10580000BB1F9B01AC01BF5728F422273327442735
:10581000507820C0B75190F4AB2F002446953795AF
:105820002795011CA395D2F3002071F0220F331F9E
:10583000441FB395DAF30ED00C94BE296130710584
:10584000A0E88A07B94630F49B01AC0166277727A8
:1058500088279078309621F02083318342835383C8
:1058600008950E94442C0C94812B0E94732B38F0D5
:105870000E947A2B20F0952311F00C94432B0C946A
:10588000492B11240C94B52B0E94922B70F3959FF9
:10589000C1F3950F50E0551F629FF001729FBB2727
:1058A000F00DB11D639FAA27F00DB11DAA1F649FC3
:1058B0006627B00DA11D661F829F2227B00DA11D76
:1058C000621F739FB00DA11D621F839FA00D611DFC
:1058D000221F749F3327A00D611D231F849F600D1D
:1058E000211D822F762F6A2F11249F5750409AF046
:1058F000F1F088234AF0EE0FFF1FBB1F661F771FD2
:10590000881F91505040A9F79E3F510580F00C949C
:10591000432B0C94B52B5F3FE4F3983ED4F386956C
:1059200077956795B795F795E7959F5FC1F7FE2B3C
:10593000880F911D9695879597F908959F930E94DA
:10594000B62C0F9007FCEE5F0C94DF2C9F3F31F0DC
:10595000915020F4879577956795B795880F911D9D
:105960009695879597F908950C94492B0E949A2B48
:10597000D8F3E894E0E0BB279F57F0F02AED3FE032
:1059800049EC06C0EE0FBB0F661F771F881F28F07B
:10599000B23A62077307840728F0B25A620B730B9E
:1059A000840BE3959A9572F7803830F49A95BB0F83
:1059B000661F771F881FD2F790480C94A82CEF938E
:1059C000E0FF07C0A2EA2AED3FE049EC5FEB0E944E
:1059D000D6290E94812B0F90039401FC9058E4E299
:1059E000F1E00C94F32C9F938F937F936F93FF932D
:1059F000EF939B01AC010E94312CEF91FF910E942B
:105A00004C2B2F913F914F915F910C94312CAA1BFD
:105A1000BB1B51E107C0AA1FBB1FA617B70710F099
:105A2000A61BB70B881F991F5A95A9F780959095CB
:105A3000BC01CD01089597FB072E16F4009407D002
:105A400077FD09D00E94072D07FC05D03EF4909504
:105A500081959F4F0895709561957F4F0895EE0F42
:105A6000FF1F0590F491E02D0994FC014150504036
:105A700030F001900616D1F73197CF0108958827AD
:105A800099270895F999FECF92BD81BDF89A99277B
:105A900080B50895A6E1B0E044E050E00C947C2D80
:105AA000A8E1B0E042E050E00C947C2D262FF9995B
:105AB000FECF92BD81BDF89A019700B4021639F06D
:105AC0001FBA20BD0FB6F894FA9AF99A0FBE08953E
:105AD0000396272F0E94572D0E94562D252F0E9496
